{
  "_format": "hh-sol-artifact-1",
  "contractName": "TenderApp",
  "sourceName": "contracts/TenderApp.sol",
  "abi": [
    {
      "inputs": [],
      "stateMutability": "nonpayable",
      "type": "constructor"
    },
    {
      "anonymous": false,
      "inputs": [],
      "name": "Announce",
      "type": "event"
    },
    {
      "inputs": [
        {
          "internalType": "uint256",
          "name": "tenderIndex",
          "type": "uint256"
        },
        {
          "internalType": "string",
          "name": "form",
          "type": "string"
        },
        {
          "internalType": "string",
          "name": "title",
          "type": "string"
        },
        {
          "internalType": "string",
          "name": "description",
          "type": "string"
        }
      ],
      "name": "applyToTender",
      "outputs": [],
      "stateMutability": "nonpayable",
      "type": "function"
    },
    {
      "inputs": [
        {
          "internalType": "uint256",
          "name": "tenderId",
          "type": "uint256"
        },
        {
          "internalType": "uint256[53]",
          "name": "answers",
          "type": "uint256[53]"
        }
      ],
      "name": "completeApplication",
      "outputs": [],
      "stateMutability": "nonpayable",
      "type": "function"
    },
    {
      "inputs": [
        {
          "internalType": "string",
          "name": "from",
          "type": "string"
        },
        {
          "internalType": "string",
          "name": "title",
          "type": "string"
        },
        {
          "internalType": "string",
          "name": "description",
          "type": "string"
        },
        {
          "internalType": "uint256",
          "name": "bidBond",
          "type": "uint256"
        },
        {
          "internalType": "uint256",
          "name": "applicationFee",
          "type": "uint256"
        },
        {
          "internalType": "uint256",
          "name": "prequalificationDeadline",
          "type": "uint256"
        },
        {
          "internalType": "uint256",
          "name": "bidSubmissionDeadline",
          "type": "uint256"
        },
        {
          "internalType": "uint256",
          "name": "contractSignDeadline",
          "type": "uint256"
        },
        {
          "internalType": "uint256",
          "name": "estimatedProjectCost",
          "type": "uint256"
        },
        {
          "internalType": "string",
          "name": "keyword",
          "type": "string"
        },
        {
          "internalType": "string",
          "name": "officialContactEmail",
          "type": "string"
        }
      ],
      "name": "createTender",
      "outputs": [],
      "stateMutability": "nonpayable",
      "type": "function"
    },
    {
      "inputs": [],
      "name": "getApplicantsByAuther",
      "outputs": [
        {
          "components": [
            {
              "internalType": "uint256",
              "name": "tenderId",
              "type": "uint256"
            },
            {
              "internalType": "address",
              "name": "applicant",
              "type": "address"
            },
            {
              "internalType": "string",
              "name": "form",
              "type": "string"
            },
            {
              "internalType": "string",
              "name": "title",
              "type": "string"
            },
            {
              "internalType": "string",
              "name": "description",
              "type": "string"
            },
            {
              "internalType": "bool",
              "name": "isCompleted",
              "type": "bool"
            },
            {
              "internalType": "uint256",
              "name": "totalScore",
              "type": "uint256"
            }
          ],
          "internalType": "struct TenderApp.Applicants[]",
          "name": "",
          "type": "tuple[]"
        }
      ],
      "stateMutability": "view",
      "type": "function"
    },
    {
      "inputs": [
        {
          "internalType": "uint256",
          "name": "tenderId",
          "type": "uint256"
        }
      ],
      "name": "getApplicantsByTender",
      "outputs": [
        {
          "components": [
            {
              "internalType": "uint256",
              "name": "tenderId",
              "type": "uint256"
            },
            {
              "internalType": "address",
              "name": "applicant",
              "type": "address"
            },
            {
              "internalType": "string",
              "name": "form",
              "type": "string"
            },
            {
              "internalType": "string",
              "name": "title",
              "type": "string"
            },
            {
              "internalType": "string",
              "name": "description",
              "type": "string"
            },
            {
              "internalType": "bool",
              "name": "isCompleted",
              "type": "bool"
            },
            {
              "internalType": "uint256",
              "name": "totalScore",
              "type": "uint256"
            }
          ],
          "internalType": "struct TenderApp.Applicants[]",
          "name": "",
          "type": "tuple[]"
        }
      ],
      "stateMutability": "view",
      "type": "function"
    },
    {
      "inputs": [
        {
          "internalType": "uint256",
          "name": "id",
          "type": "uint256"
        }
      ],
      "name": "getTenderById",
      "outputs": [
        {
          "components": [
            {
              "internalType": "uint256",
              "name": "id",
              "type": "uint256"
            },
            {
              "internalType": "address",
              "name": "auther",
              "type": "address"
            },
            {
              "internalType": "string",
              "name": "from",
              "type": "string"
            },
            {
              "internalType": "string",
              "name": "title",
              "type": "string"
            },
            {
              "internalType": "string",
              "name": "description",
              "type": "string"
            },
            {
              "internalType": "uint256",
              "name": "bidBond",
              "type": "uint256"
            },
            {
              "internalType": "uint256",
              "name": "applicationFee",
              "type": "uint256"
            },
            {
              "internalType": "uint256",
              "name": "prequalificationDeadline",
              "type": "uint256"
            },
            {
              "internalType": "uint256",
              "name": "bidSubmissionDeadline",
              "type": "uint256"
            },
            {
              "internalType": "uint256",
              "name": "contractSignDeadline",
              "type": "uint256"
            },
            {
              "internalType": "uint256",
              "name": "estimatedProjectCost",
              "type": "uint256"
            },
            {
              "internalType": "string",
              "name": "keyword",
              "type": "string"
            },
            {
              "internalType": "string",
              "name": "officialContactEmail",
              "type": "string"
            },
            {
              "internalType": "uint256",
              "name": "timestamp",
              "type": "uint256"
            }
          ],
          "internalType": "struct TenderApp.Tender",
          "name": "",
          "type": "tuple"
        }
      ],
      "stateMutability": "view",
      "type": "function"
    },
    {
      "inputs": [],
      "name": "getTenders",
      "outputs": [
        {
          "components": [
            {
              "internalType": "uint256",
              "name": "id",
              "type": "uint256"
            },
            {
              "internalType": "address",
              "name": "auther",
              "type": "address"
            },
            {
              "internalType": "string",
              "name": "from",
              "type": "string"
            },
            {
              "internalType": "string",
              "name": "title",
              "type": "string"
            },
            {
              "internalType": "string",
              "name": "description",
              "type": "string"
            },
            {
              "internalType": "uint256",
              "name": "bidBond",
              "type": "uint256"
            },
            {
              "internalType": "uint256",
              "name": "applicationFee",
              "type": "uint256"
            },
            {
              "internalType": "uint256",
              "name": "prequalificationDeadline",
              "type": "uint256"
            },
            {
              "internalType": "uint256",
              "name": "bidSubmissionDeadline",
              "type": "uint256"
            },
            {
              "internalType": "uint256",
              "name": "contractSignDeadline",
              "type": "uint256"
            },
            {
              "internalType": "uint256",
              "name": "estimatedProjectCost",
              "type": "uint256"
            },
            {
              "internalType": "string",
              "name": "keyword",
              "type": "string"
            },
            {
              "internalType": "string",
              "name": "officialContactEmail",
              "type": "string"
            },
            {
              "internalType": "uint256",
              "name": "timestamp",
              "type": "uint256"
            }
          ],
          "internalType": "struct TenderApp.Tender[10]",
          "name": "",
          "type": "tuple[10]"
        }
      ],
      "stateMutability": "view",
      "type": "function"
    },
    {
      "inputs": [],
      "name": "getTendersByApplicant",
      "outputs": [
        {
          "components": [
            {
              "internalType": "uint256",
              "name": "id",
              "type": "uint256"
            },
            {
              "internalType": "address",
              "name": "auther",
              "type": "address"
            },
            {
              "internalType": "string",
              "name": "from",
              "type": "string"
            },
            {
              "internalType": "string",
              "name": "title",
              "type": "string"
            },
            {
              "internalType": "string",
              "name": "description",
              "type": "string"
            },
            {
              "internalType": "uint256",
              "name": "bidBond",
              "type": "uint256"
            },
            {
              "internalType": "uint256",
              "name": "applicationFee",
              "type": "uint256"
            },
            {
              "internalType": "uint256",
              "name": "prequalificationDeadline",
              "type": "uint256"
            },
            {
              "internalType": "uint256",
              "name": "bidSubmissionDeadline",
              "type": "uint256"
            },
            {
              "internalType": "uint256",
              "name": "contractSignDeadline",
              "type": "uint256"
            },
            {
              "internalType": "uint256",
              "name": "estimatedProjectCost",
              "type": "uint256"
            },
            {
              "internalType": "string",
              "name": "keyword",
              "type": "string"
            },
            {
              "internalType": "string",
              "name": "officialContactEmail",
              "type": "string"
            },
            {
              "internalType": "uint256",
              "name": "timestamp",
              "type": "uint256"
            }
          ],
          "internalType": "struct TenderApp.Tender[]",
          "name": "",
          "type": "tuple[]"
        }
      ],
      "stateMutability": "view",
      "type": "function"
    },
    {
      "inputs": [],
      "name": "getTendersByAuthor",
      "outputs": [
        {
          "components": [
            {
              "internalType": "uint256",
              "name": "id",
              "type": "uint256"
            },
            {
              "internalType": "address",
              "name": "auther",
              "type": "address"
            },
            {
              "internalType": "string",
              "name": "from",
              "type": "string"
            },
            {
              "internalType": "string",
              "name": "title",
              "type": "string"
            },
            {
              "internalType": "string",
              "name": "description",
              "type": "string"
            },
            {
              "internalType": "uint256",
              "name": "bidBond",
              "type": "uint256"
            },
            {
              "internalType": "uint256",
              "name": "applicationFee",
              "type": "uint256"
            },
            {
              "internalType": "uint256",
              "name": "prequalificationDeadline",
              "type": "uint256"
            },
            {
              "internalType": "uint256",
              "name": "bidSubmissionDeadline",
              "type": "uint256"
            },
            {
              "internalType": "uint256",
              "name": "contractSignDeadline",
              "type": "uint256"
            },
            {
              "internalType": "uint256",
              "name": "estimatedProjectCost",
              "type": "uint256"
            },
            {
              "internalType": "string",
              "name": "keyword",
              "type": "string"
            },
            {
              "internalType": "string",
              "name": "officialContactEmail",
              "type": "string"
            },
            {
              "internalType": "uint256",
              "name": "timestamp",
              "type": "uint256"
            }
          ],
          "internalType": "struct TenderApp.Tender[]",
          "name": "",
          "type": "tuple[]"
        }
      ],
      "stateMutability": "view",
      "type": "function"
    },
    {
      "inputs": [
        {
          "internalType": "string",
          "name": "query",
          "type": "string"
        }
      ],
      "name": "searchTenders",
      "outputs": [
        {
          "components": [
            {
              "internalType": "uint256",
              "name": "id",
              "type": "uint256"
            },
            {
              "internalType": "address",
              "name": "auther",
              "type": "address"
            },
            {
              "internalType": "string",
              "name": "from",
              "type": "string"
            },
            {
              "internalType": "string",
              "name": "title",
              "type": "string"
            },
            {
              "internalType": "string",
              "name": "description",
              "type": "string"
            },
            {
              "internalType": "uint256",
              "name": "bidBond",
              "type": "uint256"
            },
            {
              "internalType": "uint256",
              "name": "applicationFee",
              "type": "uint256"
            },
            {
              "internalType": "uint256",
              "name": "prequalificationDeadline",
              "type": "uint256"
            },
            {
              "internalType": "uint256",
              "name": "bidSubmissionDeadline",
              "type": "uint256"
            },
            {
              "internalType": "uint256",
              "name": "contractSignDeadline",
              "type": "uint256"
            },
            {
              "internalType": "uint256",
              "name": "estimatedProjectCost",
              "type": "uint256"
            },
            {
              "internalType": "string",
              "name": "keyword",
              "type": "string"
            },
            {
              "internalType": "string",
              "name": "officialContactEmail",
              "type": "string"
            },
            {
              "internalType": "uint256",
              "name": "timestamp",
              "type": "uint256"
            }
          ],
          "internalType": "struct TenderApp.Tender[]",
          "name": "",
          "type": "tuple[]"
        }
      ],
      "stateMutability": "view",
      "type": "function"
    }
  ],
  "bytecode": "0x608060405234801561001057600080fd5b506000600281905560035561301e8061002a6000396000f3fe608060405234801561001057600080fd5b506004361061009e5760003560e01c806384663d9d1161006657806384663d9d1461011e578063b5553ed414610126578063e7ddf85e14610139578063ed39675f14610141578063eee1f2901461016157600080fd5b806303a8b488146100a357806312d0ec80146100cc5780631cef87f3146100e15780636b4548d5146100f65780636ca0ff2914610116575b600080fd5b6100b66100b13660046127e1565b610174565b6040516100c39190612840565b60405180910390f35b6100d4610461565b6040516100c39190612a1a565b6100f46100ef366004612a7e565b6108be565b005b610109610104366004612b98565b610b19565b6040516100c39190612bd5565b6100b6610fae565b6101096112cb565b6100f4610134366004612c39565b611753565b610109611963565b61015461014f3660046127e1565b611da9565b6040516100c39190612d4d565b6100f461016f366004612d67565b612183565b60015460609060009067ffffffffffffffff81111561019557610195612a68565b6040519080825280602002602001820160405280156101ce57816020015b6101bb6126f3565b8152602001906001900390816101b35790505b5090506000805b600154811015610458576000600182815481106101f4576101f4612df9565b90600052602060002090600702016040518060e0016040529081600082015481526020016001820160009054906101000a90046001600160a01b03166001600160a01b03166001600160a01b0316815260200160028201805461025690612e0f565b80601f016020809104026020016040519081016040528092919081815260200182805461028290612e0f565b80156102cf5780601f106102a4576101008083540402835291602001916102cf565b820191906000526020600020905b8154815290600101906020018083116102b257829003601f168201915b505050505081526020016003820180546102e890612e0f565b80601f016020809104026020016040519081016040528092919081815260200182805461031490612e0f565b80156103615780601f1061033657610100808354040283529160200191610361565b820191906000526020600020905b81548152906001019060200180831161034457829003601f168201915b5050505050815260200160048201805461037a90612e0f565b80601f01602080910402602001604051908101604052809291908181526020018280546103a690612e0f565b80156103f35780601f106103c8576101008083540402835291602001916103f3565b820191906000526020600020905b8154815290600101906020018083116103d657829003601f168201915b5050509183525050600582015460ff1615156020820152600690910154604090910152805190915086900361044f578084848151811061043557610435612df9565b6020026020010181905250828061044b90612e5f565b9350505b506001016101d5565b50815292915050565b61046961273b565b6000546104b45760405162461bcd60e51b81526020600482015260146024820152734e6f2074656e6465727320617661696c61626c6560601b60448201526064015b60405180910390fd5b6104bc61273b565b60008054600a106104ce5760006104dd565b6000546104dd90600a90612e78565b905060005b600a8110156108b6576000546104f88284612e8b565b10156108a957600061050a8284612e8b565b8154811061051a5761051a612df9565b90600052602060002090600e0201604051806101c0016040529081600082015481526020016001820160009054906101000a90046001600160a01b03166001600160a01b03166001600160a01b0316815260200160028201805461057d90612e0f565b80601f01602080910402602001604051908101604052809291908181526020018280546105a990612e0f565b80156105f65780601f106105cb576101008083540402835291602001916105f6565b820191906000526020600020905b8154815290600101906020018083116105d957829003601f168201915b5050505050815260200160038201805461060f90612e0f565b80601f016020809104026020016040519081016040528092919081815260200182805461063b90612e0f565b80156106885780601f1061065d57610100808354040283529160200191610688565b820191906000526020600020905b81548152906001019060200180831161066b57829003601f168201915b505050505081526020016004820180546106a190612e0f565b80601f01602080910402602001604051908101604052809291908181526020018280546106cd90612e0f565b801561071a5780601f106106ef5761010080835404028352916020019161071a565b820191906000526020600020905b8154815290600101906020018083116106fd57829003601f168201915b505050505081526020016005820154815260200160068201548152602001600782015481526020016008820154815260200160098201548152602001600a8201548152602001600b8201805461076f90612e0f565b80601f016020809104026020016040519081016040528092919081815260200182805461079b90612e0f565b80156107e85780601f106107bd576101008083540402835291602001916107e8565b820191906000526020600020905b8154815290600101906020018083116107cb57829003601f168201915b50505050508152602001600c8201805461080190612e0f565b80601f016020809104026020016040519081016040528092919081815260200182805461082d90612e0f565b801561087a5780601f1061084f5761010080835404028352916020019161087a565b820191906000526020600020905b81548152906001019060200180831161085d57829003601f168201915b50505050508152602001600d820154815250508382600a811061089f5761089f612df9565b60200201526108ae565b6108b6565b6001016104e2565b509092915050565b60008060005b600154811015610a9f5784600182815481106108e2576108e2612df9565b9060005260206000209060070201600001541480156109385750336001600160a01b03166001828154811061091957610919612df9565b60009182526020909120600160079092020101546001600160a01b0316145b15610a97576001818154811061095057610950612df9565b600091825260209091206005600790920201015460ff16156109c25760405162461bcd60e51b815260206004820152602560248201527f596f7520616c726561647920636f6d706c6574656420746865206170706c696360448201526430ba34b7b760d91b60648201526084016104ab565b60005b6035811015610a285760006109e36109de836001612e8b565b6123e5565b9050600a818784603581106109fa576109fa612df9565b6020020151610a099190612e9e565b610a139190612eb5565b610a1d9086612e8b565b9450506001016109c5565b506001808281548110610a3d57610a3d612df9565b906000526020600020906007020160050160006101000a81548160ff0219169083151502179055508260018281548110610a7957610a79612df9565b90600052602060002090600702016006018190555060019150610a9f565b6001016108c4565b5080610b135760405162461bcd60e51b815260206004820152603760248201527f4e6f206170706c69636174696f6e20666f756e6420666f72207468652067697660448201527f656e2074656e64657220494420616e642073656e64657200000000000000000060648201526084016104ab565b50505050565b60606000825111610b615760405162461bcd60e51b8152602060048201526012602482015271456d7074792073656172636820717565727960701b60448201526064016104ab565b6000805467ffffffffffffffff811115610b7d57610b7d612a68565b604051908082528060200260200182016040528015610bb657816020015b610ba3612769565b815260200190600190039081610b9b5790505b5090506000805b600054811015610458576000808281548110610bdb57610bdb612df9565b90600052602060002090600e0201604051806101c0016040529081600082015481526020016001820160009054906101000a90046001600160a01b03166001600160a01b03166001600160a01b03168152602001600282018054610c3e90612e0f565b80601f0160208091040260200160405190810160405280929190818152602001828054610c6a90612e0f565b8015610cb75780601f10610c8c57610100808354040283529160200191610cb7565b820191906000526020600020905b815481529060010190602001808311610c9a57829003601f168201915b50505050508152602001600382018054610cd090612e0f565b80601f0160208091040260200160405190810160405280929190818152602001828054610cfc90612e0f565b8015610d495780601f10610d1e57610100808354040283529160200191610d49565b820191906000526020600020905b815481529060010190602001808311610d2c57829003601f168201915b50505050508152602001600482018054610d6290612e0f565b80601f0160208091040260200160405190810160405280929190818152602001828054610d8e90612e0f565b8015610ddb5780601f10610db057610100808354040283529160200191610ddb565b820191906000526020600020905b815481529060010190602001808311610dbe57829003601f168201915b505050505081526020016005820154815260200160068201548152602001600782015481526020016008820154815260200160098201548152602001600a8201548152602001600b82018054610e3090612e0f565b80601f0160208091040260200160405190810160405280929190818152602001828054610e5c90612e0f565b8015610ea95780601f10610e7e57610100808354040283529160200191610ea9565b820191906000526020600020905b815481529060010190602001808311610e8c57829003601f168201915b50505050508152602001600c82018054610ec290612e0f565b80601f0160208091040260200160405190810160405280929190818152602001828054610eee90612e0f565b8015610f3b5780601f10610f1057610100808354040283529160200191610f3b565b820191906000526020600020905b815481529060010190602001808311610f1e57829003601f168201915b50505050508152602001600d820154815250509050610f5e816060015187612653565b80610f735750610f7381610160015187612653565b15610fa55780848481518110610f8b57610f8b612df9565b60200260200101819052508280610fa190612e5f565b9350505b50600101610bbd565b60015460609060009067ffffffffffffffff811115610fcf57610fcf612a68565b60405190808252806020026020018201604052801561100857816020015b610ff56126f3565b815260200190600190039081610fed5790505b5090506000805b6001548110156112c357336001600160a01b03166001828154811061103657611036612df9565b60009182526020909120600160079092020101546001600160a01b0316036112bb576001818154811061106b5761106b612df9565b90600052602060002090600702016040518060e0016040529081600082015481526020016001820160009054906101000a90046001600160a01b03166001600160a01b03166001600160a01b031681526020016002820180546110cd90612e0f565b80601f01602080910402602001604051908101604052809291908181526020018280546110f990612e0f565b80156111465780601f1061111b57610100808354040283529160200191611146565b820191906000526020600020905b81548152906001019060200180831161112957829003601f168201915b5050505050815260200160038201805461115f90612e0f565b80601f016020809104026020016040519081016040528092919081815260200182805461118b90612e0f565b80156111d85780601f106111ad576101008083540402835291602001916111d8565b820191906000526020600020905b8154815290600101906020018083116111bb57829003601f168201915b505050505081526020016004820180546111f190612e0f565b80601f016020809104026020016040519081016040528092919081815260200182805461121d90612e0f565b801561126a5780601f1061123f5761010080835404028352916020019161126a565b820191906000526020600020905b81548152906001019060200180831161124d57829003601f168201915b5050509183525050600582015460ff161515602082015260069091015460409091015283518490849081106112a1576112a1612df9565b602002602001018190525081806112b790612e5f565b9250505b60010161100f565b508152919050565b60015460609060009067ffffffffffffffff8111156112ec576112ec612a68565b60405190808252806020026020018201604052801561132557816020015b611312612769565b81526020019060019003908161130a5790505b5090506000805b6001548110156112c357336001600160a01b03166001828154811061135357611353612df9565b60009182526020909120600160079092020101546001600160a01b03160361174b5760006001828154811061138a5761138a612df9565b906000526020600020906007020160000154815481106113ac576113ac612df9565b90600052602060002090600e0201604051806101c0016040529081600082015481526020016001820160009054906101000a90046001600160a01b03166001600160a01b03166001600160a01b0316815260200160028201805461140f90612e0f565b80601f016020809104026020016040519081016040528092919081815260200182805461143b90612e0f565b80156114885780601f1061145d57610100808354040283529160200191611488565b820191906000526020600020905b81548152906001019060200180831161146b57829003601f168201915b505050505081526020016003820180546114a190612e0f565b80601f01602080910402602001604051908101604052809291908181526020018280546114cd90612e0f565b801561151a5780601f106114ef5761010080835404028352916020019161151a565b820191906000526020600020905b8154815290600101906020018083116114fd57829003601f168201915b5050505050815260200160048201805461153390612e0f565b80601f016020809104026020016040519081016040528092919081815260200182805461155f90612e0f565b80156115ac5780601f10611581576101008083540402835291602001916115ac565b820191906000526020600020905b81548152906001019060200180831161158f57829003601f168201915b505050505081526020016005820154815260200160068201548152602001600782015481526020016008820154815260200160098201548152602001600a8201548152602001600b8201805461160190612e0f565b80601f016020809104026020016040519081016040528092919081815260200182805461162d90612e0f565b801561167a5780601f1061164f5761010080835404028352916020019161167a565b820191906000526020600020905b81548152906001019060200180831161165d57829003601f168201915b50505050508152602001600c8201805461169390612e0f565b80601f01602080910402602001604051908101604052809291908181526020018280546116bf90612e0f565b801561170c5780601f106116e15761010080835404028352916020019161170c565b820191906000526020600020905b8154815290600101906020018083116116ef57829003601f168201915b50505050508152602001600d8201548152505083838151811061173157611731612df9565b6020026020010181905250818061174790612e5f565b9250505b60010161132c565b604080516101c081018252600254815233602082019081529181018d8152606082018d9052608082018c905260a082018b905260c082018a905260e0820189905261010082018890526101208201879052610140820186905261016082018590526101808201849052426101a08301526000805460018101825590805282517f290decd9548b62a8d60345a988386fc84ba6bc95484008f6362f93160ef3e563600e90920291820190815593517f290decd9548b62a8d60345a988386fc84ba6bc95484008f6362f93160ef3e564820180546001600160a01b0319166001600160a01b0390921691909117905590519192917f290decd9548b62a8d60345a988386fc84ba6bc95484008f6362f93160ef3e565909101906118749082612f28565b50606082015160038201906118899082612f28565b506080820151600482019061189e9082612f28565b5060a0820151600582015560c0820151600682015560e0820151600782015561010082015160088201556101208201516009820155610140820151600a820155610160820151600b8201906118f39082612f28565b50610180820151600c8201906119099082612f28565b506101a09190910151600d909101556040517f5991bd552d448a9d84936cae61a2c481ab36bf3361653f4a198279fa2373c11890600090a16002805490600061195183612e5f565b91905055505050505050505050505050565b600080546060919067ffffffffffffffff81111561198357611983612a68565b6040519080825280602002602001820160405280156119bc57816020015b6119a9612769565b8152602001906001900390816119a15790505b5090506000805b6000548110156112c35760008082815481106119e1576119e1612df9565b90600052602060002090600e0201604051806101c0016040529081600082015481526020016001820160009054906101000a90046001600160a01b03166001600160a01b03166001600160a01b03168152602001600282018054611a4490612e0f565b80601f0160208091040260200160405190810160405280929190818152602001828054611a7090612e0f565b8015611abd5780601f10611a9257610100808354040283529160200191611abd565b820191906000526020600020905b815481529060010190602001808311611aa057829003601f168201915b50505050508152602001600382018054611ad690612e0f565b80601f0160208091040260200160405190810160405280929190818152602001828054611b0290612e0f565b8015611b4f5780601f10611b2457610100808354040283529160200191611b4f565b820191906000526020600020905b815481529060010190602001808311611b3257829003601f168201915b50505050508152602001600482018054611b6890612e0f565b80601f0160208091040260200160405190810160405280929190818152602001828054611b9490612e0f565b8015611be15780601f10611bb657610100808354040283529160200191611be1565b820191906000526020600020905b815481529060010190602001808311611bc457829003601f168201915b505050505081526020016005820154815260200160068201548152602001600782015481526020016008820154815260200160098201548152602001600a8201548152602001600b82018054611c3690612e0f565b80601f0160208091040260200160405190810160405280929190818152602001828054611c6290612e0f565b8015611caf5780601f10611c8457610100808354040283529160200191611caf565b820191906000526020600020905b815481529060010190602001808311611c9257829003601f168201915b50505050508152602001600c82018054611cc890612e0f565b80601f0160208091040260200160405190810160405280929190818152602001828054611cf490612e0f565b8015611d415780601f10611d1657610100808354040283529160200191611d41565b820191906000526020600020905b815481529060010190602001808311611d2457829003601f168201915b50505050508152602001600d820154815250509050336001600160a01b031681602001516001600160a01b031603611da05780848481518110611d8657611d86612df9565b60200260200101819052508280611d9c90612e5f565b9350505b506001016119c3565b611db1612769565b6000548210611df65760405162461bcd60e51b8152602060048201526011602482015270125b9d985b1a59081d195b99195c881251607a1b60448201526064016104ab565b60008281548110611e0957611e09612df9565b90600052602060002090600e0201604051806101c0016040529081600082015481526020016001820160009054906101000a90046001600160a01b03166001600160a01b03166001600160a01b03168152602001600282018054611e6c90612e0f565b80601f0160208091040260200160405190810160405280929190818152602001828054611e9890612e0f565b8015611ee55780601f10611eba57610100808354040283529160200191611ee5565b820191906000526020600020905b815481529060010190602001808311611ec857829003601f168201915b50505050508152602001600382018054611efe90612e0f565b80601f0160208091040260200160405190810160405280929190818152602001828054611f2a90612e0f565b8015611f775780601f10611f4c57610100808354040283529160200191611f77565b820191906000526020600020905b815481529060010190602001808311611f5a57829003601f168201915b50505050508152602001600482018054611f9090612e0f565b80601f0160208091040260200160405190810160405280929190818152602001828054611fbc90612e0f565b80156120095780601f10611fde57610100808354040283529160200191612009565b820191906000526020600020905b815481529060010190602001808311611fec57829003601f168201915b505050505081526020016005820154815260200160068201548152602001600782015481526020016008820154815260200160098201548152602001600a8201548152602001600b8201805461205e90612e0f565b80601f016020809104026020016040519081016040528092919081815260200182805461208a90612e0f565b80156120d75780601f106120ac576101008083540402835291602001916120d7565b820191906000526020600020905b8154815290600101906020018083116120ba57829003601f168201915b50505050508152602001600c820180546120f090612e0f565b80601f016020809104026020016040519081016040528092919081815260200182805461211c90612e0f565b80156121695780601f1061213e57610100808354040283529160200191612169565b820191906000526020600020905b81548152906001019060200180831161214c57829003601f168201915b50505050508152602001600d820154815250509050919050565b60005484106121cb5760405162461bcd60e51b8152602060048201526014602482015273092dcecc2d8d2c840e8cadcc8cae440d2dcc8caf60631b60448201526064016104ab565b60005b6001548110156122a75784600182815481106121ec576121ec612df9565b9060005260206000209060070201600001541480156122425750336001600160a01b03166001828154811061222357612223612df9565b60009182526020909120600160079092020101546001600160a01b0316145b1561229f5760405162461bcd60e51b815260206004820152602760248201527f596f75206861766520616c7265616479206170706c69656420746f2074686973604482015266103a32b73232b960c91b60648201526084016104ab565b6001016121ce565b506040805160e08101825285815233602082019081529181018581526060820185905260808201849052600060a0830181905260c08301819052600180548082018255915282517fb10e2d527612073b26eecdfd717e6a320cf44b4afac2b0732d9fcbe2b7fa0cf6600790920291820190815593517fb10e2d527612073b26eecdfd717e6a320cf44b4afac2b0732d9fcbe2b7fa0cf7820180546001600160a01b0319166001600160a01b0390921691909117905590519192917fb10e2d527612073b26eecdfd717e6a320cf44b4afac2b0732d9fcbe2b7fa0cf8909101906123909082612f28565b50606082015160038201906123a59082612f28565b50608082015160048201906123ba9082612f28565b5060a082015160058201805460ff191691151591909117905560c09091015160069091015550505050565b600081600114806123f65750816002145b806124015750816003145b8061240c5750816004145b806124175750816005145b806124225750816006145b8061242d5750816007145b806124385750816009145b80612443575081600a145b8061244e575081600b145b80612459575081600c145b80612464575081600e145b8061246f575081600f145b8061247a5750816010145b806124855750816011145b806124905750816012145b8061249b5750816013145b806124a65750816014145b806124b15750816015145b806124bc5750816017145b806124c75750816018145b806124d25750816019145b806124dd575081601a145b806124e8575081601e145b806124f3575081601f145b806124fe5750816024145b806125095750816025145b806125145750816026145b8061251f5750816027145b8061252a5750816028145b806125355750816029145b80612540575081602a145b1561254d5750600a919050565b8160080361255d57506014919050565b81600d148061256c575081601b145b80612577575081601c145b806125825750816020145b8061258d5750816021145b806125985750816022145b806125a35750816023145b156125b057506005919050565b81601614806125bf575081601d145b156125cc57506001919050565b81602b14806125db575081602c145b806125e6575081602d145b806125f1575081602e145b806125fc575081602f145b806126075750816030145b806126125750816031145b8061261d5750816032145b806126285750816033145b806126335750816034145b8061263e5750816035145b1561264b5750600a919050565b506000919050565b6000828282805b83518110156126e45782828151811061267557612675612df9565b602001015160f81c60f81b6001600160f81b03191684828151811061269c5761269c612df9565b01602001516001600160f81b031916036126d757816126ba81612e5f565b925050825182036126d25760019450505050506126ed565b6126dc565b600091505b60010161265a565b50600093505050505b92915050565b6040518060e001604052806000815260200160006001600160a01b03168152602001606081526020016060815260200160608152602001600015158152602001600081525090565b604051806101400160405280600a905b612753612769565b81526020019060019003908161274b5790505090565b604051806101c001604052806000815260200160006001600160a01b031681526020016060815260200160608152602001606081526020016000815260200160008152602001600081526020016000815260200160008152602001600081526020016060815260200160608152602001600081525090565b6000602082840312156127f357600080fd5b5035919050565b6000815180845260005b8181101561282057602081850181015186830182015201612804565b506000602082860101526020601f19601f83011685010191505092915050565b600060208083018184528085518083526040925060408601915060408160051b87010184880160005b8381101561290c57888303603f19018552815180518452878101516001600160a01b0316888501528681015160e0888601819052906128aa828701826127fa565b915050606080830151868303828801526128c483826127fa565b92505050608080830151868303828801526128df83826127fa565b60a08581015115159089015260c09485015194909701939093525050509386019390860190600101612869565b509098975050505050505050565b60006101c082518452602083015161293d60208601826001600160a01b03169052565b506040830151816040860152612955828601826127fa565b9150506060830151848203606086015261296f82826127fa565b9150506080830151848203608086015261298982826127fa565b91505060a083015160a085015260c083015160c085015260e083015160e085015261010080840151818601525061012080840151818601525061014080840151818601525061016080840151858303828701526129e683826127fa565b925050506101808084015185830382870152612a0283826127fa565b6101a095860151969095019590955250919392505050565b6020808252600090610160830183820185845b600a811015612a5c57601f19878503018352612a4a84835161291a565b93509184019190840190600101612a2d565b50919695505050505050565b634e487b7160e01b600052604160045260246000fd5b6000806106c0808486031215612a9357600080fd5b83359250602085603f860112612aa857600080fd5b6040516106a0810181811067ffffffffffffffff82111715612acc57612acc612a68565b604052918501918087841115612ae157600080fd5b602087015b84811015612afd5780358252908301908301612ae6565b509497909650945050505050565b600082601f830112612b1c57600080fd5b813567ffffffffffffffff80821115612b3757612b37612a68565b604051601f8301601f19908116603f01168101908282118183101715612b5f57612b5f612a68565b81604052838152866020858801011115612b7857600080fd5b836020870160208301376000602085830101528094505050505092915050565b600060208284031215612baa57600080fd5b813567ffffffffffffffff811115612bc157600080fd5b612bcd84828501612b0b565b949350505050565b600060208083016020845280855180835260408601915060408160051b87010192506020870160005b82811015612c2c57603f19888603018452612c1a85835161291a565b94509285019290850190600101612bfe565b5092979650505050505050565b60008060008060008060008060008060006101608c8e031215612c5b57600080fd5b67ffffffffffffffff808d351115612c7257600080fd5b612c7f8e8e358f01612b0b565b9b508060208e01351115612c9257600080fd5b612ca28e60208f01358f01612b0b565b9a508060408e01351115612cb557600080fd5b612cc58e60408f01358f01612b0b565b995060608d0135985060808d0135975060a08d0135965060c08d0135955060e08d013594506101008d01359350806101208e01351115612d0457600080fd5b612d158e6101208f01358f01612b0b565b9250806101408e01351115612d2957600080fd5b50612d3b8d6101408e01358e01612b0b565b90509295989b509295989b9093969950565b602081526000612d60602083018461291a565b9392505050565b60008060008060808587031215612d7d57600080fd5b84359350602085013567ffffffffffffffff80821115612d9c57600080fd5b612da888838901612b0b565b94506040870135915080821115612dbe57600080fd5b612dca88838901612b0b565b93506060870135915080821115612de057600080fd5b50612ded87828801612b0b565b91505092959194509250565b634e487b7160e01b600052603260045260246000fd5b600181811c90821680612e2357607f821691505b602082108103612e4357634e487b7160e01b600052602260045260246000fd5b50919050565b634e487b7160e01b600052601160045260246000fd5b600060018201612e7157612e71612e49565b5060010190565b818103818111156126ed576126ed612e49565b808201808211156126ed576126ed612e49565b80820281158282048414176126ed576126ed612e49565b600082612ed257634e487b7160e01b600052601260045260246000fd5b500490565b601f821115612f23576000816000526020600020601f850160051c81016020861015612f005750805b601f850160051c820191505b81811015612f1f57828155600101612f0c565b5050505b505050565b815167ffffffffffffffff811115612f4257612f42612a68565b612f5681612f508454612e0f565b84612ed7565b602080601f831160018114612f8b5760008415612f735750858301515b600019600386901b1c1916600185901b178555612f1f565b600085815260208120601f198616915b82811015612fba57888601518255948401946001909101908401612f9b565b5085821015612fd85787850151600019600388901b60f8161c191681555b5050505050600190811b0190555056fea26469706673582212205a47907c73ef38e3b6d852a74d1e4d35d75fe819fdd8744e6a389e3972d7c1e764736f6c63430008180033",
  "linkReferences": {},
  "deployedLinkReferences": {}
}