{
  "_format": "hh-sol-artifact-1",
  "contractName": "TenderApp",
  "sourceName": "contracts/TenderApp.sol",
  "abi": [
    {
      "inputs": [],
      "stateMutability": "nonpayable",
      "type": "constructor"
    },
    {
      "anonymous": false,
      "inputs": [],
      "name": "Announce",
      "type": "event"
    },
    {
      "inputs": [
        {
          "internalType": "uint256",
          "name": "tenderIndex",
          "type": "uint256"
        },
        {
          "internalType": "string",
          "name": "form",
          "type": "string"
        },
        {
          "internalType": "string",
          "name": "title",
          "type": "string"
        },
        {
          "internalType": "string",
          "name": "description",
          "type": "string"
        }
      ],
      "name": "applyToTender",
      "outputs": [],
      "stateMutability": "payable",
      "type": "function"
    },
    {
      "inputs": [
        {
          "internalType": "uint256",
          "name": "tenderId",
          "type": "uint256"
        },
        {
          "internalType": "uint256[53]",
          "name": "answers",
          "type": "uint256[53]"
        }
      ],
      "name": "completeApplication",
      "outputs": [],
      "stateMutability": "nonpayable",
      "type": "function"
    },
    {
      "inputs": [
        {
          "internalType": "string",
          "name": "from",
          "type": "string"
        },
        {
          "internalType": "string",
          "name": "title",
          "type": "string"
        },
        {
          "internalType": "string",
          "name": "description",
          "type": "string"
        },
        {
          "internalType": "uint256",
          "name": "bidBond",
          "type": "uint256"
        },
        {
          "internalType": "uint256",
          "name": "applicationFee",
          "type": "uint256"
        },
        {
          "internalType": "uint256",
          "name": "prequalificationDeadline",
          "type": "uint256"
        },
        {
          "internalType": "uint256",
          "name": "bidSubmissionDeadline",
          "type": "uint256"
        },
        {
          "internalType": "uint256",
          "name": "contractSignDeadline",
          "type": "uint256"
        },
        {
          "internalType": "uint256",
          "name": "estimatedProjectCost",
          "type": "uint256"
        },
        {
          "internalType": "string",
          "name": "keyword",
          "type": "string"
        },
        {
          "internalType": "string",
          "name": "officialContactEmail",
          "type": "string"
        }
      ],
      "name": "createTender",
      "outputs": [],
      "stateMutability": "nonpayable",
      "type": "function"
    },
    {
      "inputs": [],
      "name": "getApplicantsByAuther",
      "outputs": [
        {
          "components": [
            {
              "internalType": "uint256",
              "name": "tenderId",
              "type": "uint256"
            },
            {
              "internalType": "address",
              "name": "applicant",
              "type": "address"
            },
            {
              "internalType": "string",
              "name": "form",
              "type": "string"
            },
            {
              "internalType": "string",
              "name": "title",
              "type": "string"
            },
            {
              "internalType": "string",
              "name": "description",
              "type": "string"
            },
            {
              "internalType": "bool",
              "name": "isCompleted",
              "type": "bool"
            },
            {
              "internalType": "uint256",
              "name": "totalScore",
              "type": "uint256"
            }
          ],
          "internalType": "struct TenderApp.Applicants[]",
          "name": "",
          "type": "tuple[]"
        }
      ],
      "stateMutability": "view",
      "type": "function"
    },
    {
      "inputs": [
        {
          "internalType": "uint256",
          "name": "tenderId",
          "type": "uint256"
        }
      ],
      "name": "getApplicantsByTender",
      "outputs": [
        {
          "components": [
            {
              "internalType": "uint256",
              "name": "tenderId",
              "type": "uint256"
            },
            {
              "internalType": "address",
              "name": "applicant",
              "type": "address"
            },
            {
              "internalType": "string",
              "name": "form",
              "type": "string"
            },
            {
              "internalType": "string",
              "name": "title",
              "type": "string"
            },
            {
              "internalType": "string",
              "name": "description",
              "type": "string"
            },
            {
              "internalType": "bool",
              "name": "isCompleted",
              "type": "bool"
            },
            {
              "internalType": "uint256",
              "name": "totalScore",
              "type": "uint256"
            }
          ],
          "internalType": "struct TenderApp.Applicants[]",
          "name": "",
          "type": "tuple[]"
        }
      ],
      "stateMutability": "view",
      "type": "function"
    },
    {
      "inputs": [
        {
          "internalType": "uint256",
          "name": "id",
          "type": "uint256"
        }
      ],
      "name": "getTenderById",
      "outputs": [
        {
          "components": [
            {
              "internalType": "uint256",
              "name": "id",
              "type": "uint256"
            },
            {
              "internalType": "address",
              "name": "auther",
              "type": "address"
            },
            {
              "internalType": "string",
              "name": "from",
              "type": "string"
            },
            {
              "internalType": "string",
              "name": "title",
              "type": "string"
            },
            {
              "internalType": "string",
              "name": "description",
              "type": "string"
            },
            {
              "internalType": "uint256",
              "name": "bidBond",
              "type": "uint256"
            },
            {
              "internalType": "uint256",
              "name": "applicationFee",
              "type": "uint256"
            },
            {
              "internalType": "uint256",
              "name": "prequalificationDeadline",
              "type": "uint256"
            },
            {
              "internalType": "uint256",
              "name": "bidSubmissionDeadline",
              "type": "uint256"
            },
            {
              "internalType": "uint256",
              "name": "contractSignDeadline",
              "type": "uint256"
            },
            {
              "internalType": "uint256",
              "name": "estimatedProjectCost",
              "type": "uint256"
            },
            {
              "internalType": "string",
              "name": "keyword",
              "type": "string"
            },
            {
              "internalType": "string",
              "name": "officialContactEmail",
              "type": "string"
            },
            {
              "internalType": "uint256",
              "name": "timestamp",
              "type": "uint256"
            }
          ],
          "internalType": "struct TenderApp.Tender",
          "name": "",
          "type": "tuple"
        }
      ],
      "stateMutability": "view",
      "type": "function"
    },
    {
      "inputs": [],
      "name": "getTenders",
      "outputs": [
        {
          "components": [
            {
              "internalType": "uint256",
              "name": "id",
              "type": "uint256"
            },
            {
              "internalType": "address",
              "name": "auther",
              "type": "address"
            },
            {
              "internalType": "string",
              "name": "from",
              "type": "string"
            },
            {
              "internalType": "string",
              "name": "title",
              "type": "string"
            },
            {
              "internalType": "string",
              "name": "description",
              "type": "string"
            },
            {
              "internalType": "uint256",
              "name": "bidBond",
              "type": "uint256"
            },
            {
              "internalType": "uint256",
              "name": "applicationFee",
              "type": "uint256"
            },
            {
              "internalType": "uint256",
              "name": "prequalificationDeadline",
              "type": "uint256"
            },
            {
              "internalType": "uint256",
              "name": "bidSubmissionDeadline",
              "type": "uint256"
            },
            {
              "internalType": "uint256",
              "name": "contractSignDeadline",
              "type": "uint256"
            },
            {
              "internalType": "uint256",
              "name": "estimatedProjectCost",
              "type": "uint256"
            },
            {
              "internalType": "string",
              "name": "keyword",
              "type": "string"
            },
            {
              "internalType": "string",
              "name": "officialContactEmail",
              "type": "string"
            },
            {
              "internalType": "uint256",
              "name": "timestamp",
              "type": "uint256"
            }
          ],
          "internalType": "struct TenderApp.Tender[10]",
          "name": "",
          "type": "tuple[10]"
        }
      ],
      "stateMutability": "view",
      "type": "function"
    },
    {
      "inputs": [],
      "name": "getTendersByApplicant",
      "outputs": [
        {
          "components": [
            {
              "internalType": "uint256",
              "name": "id",
              "type": "uint256"
            },
            {
              "internalType": "address",
              "name": "auther",
              "type": "address"
            },
            {
              "internalType": "string",
              "name": "from",
              "type": "string"
            },
            {
              "internalType": "string",
              "name": "title",
              "type": "string"
            },
            {
              "internalType": "string",
              "name": "description",
              "type": "string"
            },
            {
              "internalType": "uint256",
              "name": "bidBond",
              "type": "uint256"
            },
            {
              "internalType": "uint256",
              "name": "applicationFee",
              "type": "uint256"
            },
            {
              "internalType": "uint256",
              "name": "prequalificationDeadline",
              "type": "uint256"
            },
            {
              "internalType": "uint256",
              "name": "bidSubmissionDeadline",
              "type": "uint256"
            },
            {
              "internalType": "uint256",
              "name": "contractSignDeadline",
              "type": "uint256"
            },
            {
              "internalType": "uint256",
              "name": "estimatedProjectCost",
              "type": "uint256"
            },
            {
              "internalType": "string",
              "name": "keyword",
              "type": "string"
            },
            {
              "internalType": "string",
              "name": "officialContactEmail",
              "type": "string"
            },
            {
              "internalType": "uint256",
              "name": "timestamp",
              "type": "uint256"
            }
          ],
          "internalType": "struct TenderApp.Tender[]",
          "name": "",
          "type": "tuple[]"
        }
      ],
      "stateMutability": "view",
      "type": "function"
    },
    {
      "inputs": [],
      "name": "getTendersByAuthor",
      "outputs": [
        {
          "components": [
            {
              "internalType": "uint256",
              "name": "id",
              "type": "uint256"
            },
            {
              "internalType": "address",
              "name": "auther",
              "type": "address"
            },
            {
              "internalType": "string",
              "name": "from",
              "type": "string"
            },
            {
              "internalType": "string",
              "name": "title",
              "type": "string"
            },
            {
              "internalType": "string",
              "name": "description",
              "type": "string"
            },
            {
              "internalType": "uint256",
              "name": "bidBond",
              "type": "uint256"
            },
            {
              "internalType": "uint256",
              "name": "applicationFee",
              "type": "uint256"
            },
            {
              "internalType": "uint256",
              "name": "prequalificationDeadline",
              "type": "uint256"
            },
            {
              "internalType": "uint256",
              "name": "bidSubmissionDeadline",
              "type": "uint256"
            },
            {
              "internalType": "uint256",
              "name": "contractSignDeadline",
              "type": "uint256"
            },
            {
              "internalType": "uint256",
              "name": "estimatedProjectCost",
              "type": "uint256"
            },
            {
              "internalType": "string",
              "name": "keyword",
              "type": "string"
            },
            {
              "internalType": "string",
              "name": "officialContactEmail",
              "type": "string"
            },
            {
              "internalType": "uint256",
              "name": "timestamp",
              "type": "uint256"
            }
          ],
          "internalType": "struct TenderApp.Tender[]",
          "name": "",
          "type": "tuple[]"
        }
      ],
      "stateMutability": "view",
      "type": "function"
    },
    {
      "inputs": [
        {
          "internalType": "string",
          "name": "query",
          "type": "string"
        }
      ],
      "name": "searchTenders",
      "outputs": [
        {
          "components": [
            {
              "internalType": "uint256",
              "name": "id",
              "type": "uint256"
            },
            {
              "internalType": "address",
              "name": "auther",
              "type": "address"
            },
            {
              "internalType": "string",
              "name": "from",
              "type": "string"
            },
            {
              "internalType": "string",
              "name": "title",
              "type": "string"
            },
            {
              "internalType": "string",
              "name": "description",
              "type": "string"
            },
            {
              "internalType": "uint256",
              "name": "bidBond",
              "type": "uint256"
            },
            {
              "internalType": "uint256",
              "name": "applicationFee",
              "type": "uint256"
            },
            {
              "internalType": "uint256",
              "name": "prequalificationDeadline",
              "type": "uint256"
            },
            {
              "internalType": "uint256",
              "name": "bidSubmissionDeadline",
              "type": "uint256"
            },
            {
              "internalType": "uint256",
              "name": "contractSignDeadline",
              "type": "uint256"
            },
            {
              "internalType": "uint256",
              "name": "estimatedProjectCost",
              "type": "uint256"
            },
            {
              "internalType": "string",
              "name": "keyword",
              "type": "string"
            },
            {
              "internalType": "string",
              "name": "officialContactEmail",
              "type": "string"
            },
            {
              "internalType": "uint256",
              "name": "timestamp",
              "type": "uint256"
            }
          ],
          "internalType": "struct TenderApp.Tender[]",
          "name": "",
          "type": "tuple[]"
        }
      ],
      "stateMutability": "view",
      "type": "function"
    }
  ],
  "bytecode": "0x608060405234801561001057600080fd5b50600060028190556003556134638061002a6000396000f3fe6080604052600436106100915760003560e01c806384663d9d1161005957806384663d9d14610152578063b5553ed414610167578063e7ddf85e14610187578063ed39675f1461019c578063eee1f290146101c957600080fd5b806303a8b4881461009657806312d0ec80146100cc5780631cef87f3146100ee5780636b4548d5146101105780636ca0ff291461013d575b600080fd5b3480156100a257600080fd5b506100b66100b1366004612c26565b6101dc565b6040516100c39190612c85565b60405180910390f35b3480156100d857600080fd5b506100e16104c9565b6040516100c39190612e5f565b3480156100fa57600080fd5b5061010e610109366004612ec3565b610926565b005b34801561011c57600080fd5b5061013061012b366004612fdd565b610b81565b6040516100c3919061301a565b34801561014957600080fd5b506100b6611016565b34801561015e57600080fd5b50610130611333565b34801561017357600080fd5b5061010e61018236600461307e565b6117bb565b34801561019357600080fd5b506101306119cb565b3480156101a857600080fd5b506101bc6101b7366004612c26565b611e11565b6040516100c39190613192565b61010e6101d73660046131ac565b6121eb565b60015460609060009067ffffffffffffffff8111156101fd576101fd612ead565b60405190808252806020026020018201604052801561023657816020015b610223612b38565b81526020019060019003908161021b5790505b5090506000805b6001548110156104c05760006001828154811061025c5761025c61323e565b90600052602060002090600702016040518060e0016040529081600082015481526020016001820160009054906101000a90046001600160a01b03166001600160a01b03166001600160a01b031681526020016002820180546102be90613254565b80601f01602080910402602001604051908101604052809291908181526020018280546102ea90613254565b80156103375780601f1061030c57610100808354040283529160200191610337565b820191906000526020600020905b81548152906001019060200180831161031a57829003601f168201915b5050505050815260200160038201805461035090613254565b80601f016020809104026020016040519081016040528092919081815260200182805461037c90613254565b80156103c95780601f1061039e576101008083540402835291602001916103c9565b820191906000526020600020905b8154815290600101906020018083116103ac57829003601f168201915b505050505081526020016004820180546103e290613254565b80601f016020809104026020016040519081016040528092919081815260200182805461040e90613254565b801561045b5780601f106104305761010080835404028352916020019161045b565b820191906000526020600020905b81548152906001019060200180831161043e57829003601f168201915b5050509183525050600582015460ff161515602082015260069091015460409091015280519091508690036104b7578084848151811061049d5761049d61323e565b602002602001018190525082806104b3906132a4565b9350505b5060010161023d565b50815292915050565b6104d1612b80565b60005461051c5760405162461bcd60e51b81526020600482015260146024820152734e6f2074656e6465727320617661696c61626c6560601b60448201526064015b60405180910390fd5b610524612b80565b60008054600a10610536576000610545565b60005461054590600a906132bd565b905060005b600a81101561091e5760005461056082846132d0565b101561091157600061057282846132d0565b815481106105825761058261323e565b90600052602060002090600e0201604051806101c0016040529081600082015481526020016001820160009054906101000a90046001600160a01b03166001600160a01b03166001600160a01b031681526020016002820180546105e590613254565b80601f016020809104026020016040519081016040528092919081815260200182805461061190613254565b801561065e5780601f106106335761010080835404028352916020019161065e565b820191906000526020600020905b81548152906001019060200180831161064157829003601f168201915b5050505050815260200160038201805461067790613254565b80601f01602080910402602001604051908101604052809291908181526020018280546106a390613254565b80156106f05780601f106106c5576101008083540402835291602001916106f0565b820191906000526020600020905b8154815290600101906020018083116106d357829003601f168201915b5050505050815260200160048201805461070990613254565b80601f016020809104026020016040519081016040528092919081815260200182805461073590613254565b80156107825780601f1061075757610100808354040283529160200191610782565b820191906000526020600020905b81548152906001019060200180831161076557829003601f168201915b505050505081526020016005820154815260200160068201548152602001600782015481526020016008820154815260200160098201548152602001600a8201548152602001600b820180546107d790613254565b80601f016020809104026020016040519081016040528092919081815260200182805461080390613254565b80156108505780601f1061082557610100808354040283529160200191610850565b820191906000526020600020905b81548152906001019060200180831161083357829003601f168201915b50505050508152602001600c8201805461086990613254565b80601f016020809104026020016040519081016040528092919081815260200182805461089590613254565b80156108e25780601f106108b7576101008083540402835291602001916108e2565b820191906000526020600020905b8154815290600101906020018083116108c557829003601f168201915b50505050508152602001600d820154815250508382600a81106109075761090761323e565b6020020152610916565b61091e565b60010161054a565b509092915050565b60008060005b600154811015610b0757846001828154811061094a5761094a61323e565b9060005260206000209060070201600001541480156109a05750336001600160a01b0316600182815481106109815761098161323e565b60009182526020909120600160079092020101546001600160a01b0316145b15610aff57600181815481106109b8576109b861323e565b600091825260209091206005600790920201015460ff1615610a2a5760405162461bcd60e51b815260206004820152602560248201527f596f7520616c726561647920636f6d706c6574656420746865206170706c696360448201526430ba34b7b760d91b6064820152608401610513565b60005b6035811015610a90576000610a4b610a468360016132d0565b61282a565b9050600a81878460358110610a6257610a6261323e565b6020020151610a7191906132e3565b610a7b91906132fa565b610a8590866132d0565b945050600101610a2d565b506001808281548110610aa557610aa561323e565b906000526020600020906007020160050160006101000a81548160ff0219169083151502179055508260018281548110610ae157610ae161323e565b90600052602060002090600702016006018190555060019150610b07565b60010161092c565b5080610b7b5760405162461bcd60e51b815260206004820152603760248201527f4e6f206170706c69636174696f6e20666f756e6420666f72207468652067697660448201527f656e2074656e64657220494420616e642073656e6465720000000000000000006064820152608401610513565b50505050565b60606000825111610bc95760405162461bcd60e51b8152602060048201526012602482015271456d7074792073656172636820717565727960701b6044820152606401610513565b6000805467ffffffffffffffff811115610be557610be5612ead565b604051908082528060200260200182016040528015610c1e57816020015b610c0b612bae565b815260200190600190039081610c035790505b5090506000805b6000548110156104c0576000808281548110610c4357610c4361323e565b90600052602060002090600e0201604051806101c0016040529081600082015481526020016001820160009054906101000a90046001600160a01b03166001600160a01b03166001600160a01b03168152602001600282018054610ca690613254565b80601f0160208091040260200160405190810160405280929190818152602001828054610cd290613254565b8015610d1f5780601f10610cf457610100808354040283529160200191610d1f565b820191906000526020600020905b815481529060010190602001808311610d0257829003601f168201915b50505050508152602001600382018054610d3890613254565b80601f0160208091040260200160405190810160405280929190818152602001828054610d6490613254565b8015610db15780601f10610d8657610100808354040283529160200191610db1565b820191906000526020600020905b815481529060010190602001808311610d9457829003601f168201915b50505050508152602001600482018054610dca90613254565b80601f0160208091040260200160405190810160405280929190818152602001828054610df690613254565b8015610e435780601f10610e1857610100808354040283529160200191610e43565b820191906000526020600020905b815481529060010190602001808311610e2657829003601f168201915b505050505081526020016005820154815260200160068201548152602001600782015481526020016008820154815260200160098201548152602001600a8201548152602001600b82018054610e9890613254565b80601f0160208091040260200160405190810160405280929190818152602001828054610ec490613254565b8015610f115780601f10610ee657610100808354040283529160200191610f11565b820191906000526020600020905b815481529060010190602001808311610ef457829003601f168201915b50505050508152602001600c82018054610f2a90613254565b80601f0160208091040260200160405190810160405280929190818152602001828054610f5690613254565b8015610fa35780601f10610f7857610100808354040283529160200191610fa3565b820191906000526020600020905b815481529060010190602001808311610f8657829003601f168201915b50505050508152602001600d820154815250509050610fc6816060015187612a98565b80610fdb5750610fdb81610160015187612a98565b1561100d5780848481518110610ff357610ff361323e565b60200260200101819052508280611009906132a4565b9350505b50600101610c25565b60015460609060009067ffffffffffffffff81111561103757611037612ead565b60405190808252806020026020018201604052801561107057816020015b61105d612b38565b8152602001906001900390816110555790505b5090506000805b60015481101561132b57336001600160a01b03166001828154811061109e5761109e61323e565b60009182526020909120600160079092020101546001600160a01b03160361132357600181815481106110d3576110d361323e565b90600052602060002090600702016040518060e0016040529081600082015481526020016001820160009054906101000a90046001600160a01b03166001600160a01b03166001600160a01b0316815260200160028201805461113590613254565b80601f016020809104026020016040519081016040528092919081815260200182805461116190613254565b80156111ae5780601f10611183576101008083540402835291602001916111ae565b820191906000526020600020905b81548152906001019060200180831161119157829003601f168201915b505050505081526020016003820180546111c790613254565b80601f01602080910402602001604051908101604052809291908181526020018280546111f390613254565b80156112405780601f1061121557610100808354040283529160200191611240565b820191906000526020600020905b81548152906001019060200180831161122357829003601f168201915b5050505050815260200160048201805461125990613254565b80601f016020809104026020016040519081016040528092919081815260200182805461128590613254565b80156112d25780601f106112a7576101008083540402835291602001916112d2565b820191906000526020600020905b8154815290600101906020018083116112b557829003601f168201915b5050509183525050600582015460ff161515602082015260069091015460409091015283518490849081106113095761130961323e565b6020026020010181905250818061131f906132a4565b9250505b600101611077565b508152919050565b60015460609060009067ffffffffffffffff81111561135457611354612ead565b60405190808252806020026020018201604052801561138d57816020015b61137a612bae565b8152602001906001900390816113725790505b5090506000805b60015481101561132b57336001600160a01b0316600182815481106113bb576113bb61323e565b60009182526020909120600160079092020101546001600160a01b0316036117b3576000600182815481106113f2576113f261323e565b906000526020600020906007020160000154815481106114145761141461323e565b90600052602060002090600e0201604051806101c0016040529081600082015481526020016001820160009054906101000a90046001600160a01b03166001600160a01b03166001600160a01b0316815260200160028201805461147790613254565b80601f01602080910402602001604051908101604052809291908181526020018280546114a390613254565b80156114f05780601f106114c5576101008083540402835291602001916114f0565b820191906000526020600020905b8154815290600101906020018083116114d357829003601f168201915b5050505050815260200160038201805461150990613254565b80601f016020809104026020016040519081016040528092919081815260200182805461153590613254565b80156115825780601f1061155757610100808354040283529160200191611582565b820191906000526020600020905b81548152906001019060200180831161156557829003601f168201915b5050505050815260200160048201805461159b90613254565b80601f01602080910402602001604051908101604052809291908181526020018280546115c790613254565b80156116145780601f106115e957610100808354040283529160200191611614565b820191906000526020600020905b8154815290600101906020018083116115f757829003601f168201915b505050505081526020016005820154815260200160068201548152602001600782015481526020016008820154815260200160098201548152602001600a8201548152602001600b8201805461166990613254565b80601f016020809104026020016040519081016040528092919081815260200182805461169590613254565b80156116e25780601f106116b7576101008083540402835291602001916116e2565b820191906000526020600020905b8154815290600101906020018083116116c557829003601f168201915b50505050508152602001600c820180546116fb90613254565b80601f016020809104026020016040519081016040528092919081815260200182805461172790613254565b80156117745780601f1061174957610100808354040283529160200191611774565b820191906000526020600020905b81548152906001019060200180831161175757829003601f168201915b50505050508152602001600d820154815250508383815181106117995761179961323e565b602002602001018190525081806117af906132a4565b9250505b600101611394565b604080516101c081018252600254815233602082019081529181018d8152606082018d9052608082018c905260a082018b905260c082018a905260e0820189905261010082018890526101208201879052610140820186905261016082018590526101808201849052426101a08301526000805460018101825590805282517f290decd9548b62a8d60345a988386fc84ba6bc95484008f6362f93160ef3e563600e90920291820190815593517f290decd9548b62a8d60345a988386fc84ba6bc95484008f6362f93160ef3e564820180546001600160a01b0319166001600160a01b0390921691909117905590519192917f290decd9548b62a8d60345a988386fc84ba6bc95484008f6362f93160ef3e565909101906118dc908261336d565b50606082015160038201906118f1908261336d565b5060808201516004820190611906908261336d565b5060a0820151600582015560c0820151600682015560e0820151600782015561010082015160088201556101208201516009820155610140820151600a820155610160820151600b82019061195b908261336d565b50610180820151600c820190611971908261336d565b506101a09190910151600d909101556040517f5991bd552d448a9d84936cae61a2c481ab36bf3361653f4a198279fa2373c11890600090a1600280549060006119b9836132a4565b91905055505050505050505050505050565b600080546060919067ffffffffffffffff8111156119eb576119eb612ead565b604051908082528060200260200182016040528015611a2457816020015b611a11612bae565b815260200190600190039081611a095790505b5090506000805b60005481101561132b576000808281548110611a4957611a4961323e565b90600052602060002090600e0201604051806101c0016040529081600082015481526020016001820160009054906101000a90046001600160a01b03166001600160a01b03166001600160a01b03168152602001600282018054611aac90613254565b80601f0160208091040260200160405190810160405280929190818152602001828054611ad890613254565b8015611b255780601f10611afa57610100808354040283529160200191611b25565b820191906000526020600020905b815481529060010190602001808311611b0857829003601f168201915b50505050508152602001600382018054611b3e90613254565b80601f0160208091040260200160405190810160405280929190818152602001828054611b6a90613254565b8015611bb75780601f10611b8c57610100808354040283529160200191611bb7565b820191906000526020600020905b815481529060010190602001808311611b9a57829003601f168201915b50505050508152602001600482018054611bd090613254565b80601f0160208091040260200160405190810160405280929190818152602001828054611bfc90613254565b8015611c495780601f10611c1e57610100808354040283529160200191611c49565b820191906000526020600020905b815481529060010190602001808311611c2c57829003601f168201915b505050505081526020016005820154815260200160068201548152602001600782015481526020016008820154815260200160098201548152602001600a8201548152602001600b82018054611c9e90613254565b80601f0160208091040260200160405190810160405280929190818152602001828054611cca90613254565b8015611d175780601f10611cec57610100808354040283529160200191611d17565b820191906000526020600020905b815481529060010190602001808311611cfa57829003601f168201915b50505050508152602001600c82018054611d3090613254565b80601f0160208091040260200160405190810160405280929190818152602001828054611d5c90613254565b8015611da95780601f10611d7e57610100808354040283529160200191611da9565b820191906000526020600020905b815481529060010190602001808311611d8c57829003601f168201915b50505050508152602001600d820154815250509050336001600160a01b031681602001516001600160a01b031603611e085780848481518110611dee57611dee61323e565b60200260200101819052508280611e04906132a4565b9350505b50600101611a2b565b611e19612bae565b6000548210611e5e5760405162461bcd60e51b8152602060048201526011602482015270125b9d985b1a59081d195b99195c881251607a1b6044820152606401610513565b60008281548110611e7157611e7161323e565b90600052602060002090600e0201604051806101c0016040529081600082015481526020016001820160009054906101000a90046001600160a01b03166001600160a01b03166001600160a01b03168152602001600282018054611ed490613254565b80601f0160208091040260200160405190810160405280929190818152602001828054611f0090613254565b8015611f4d5780601f10611f2257610100808354040283529160200191611f4d565b820191906000526020600020905b815481529060010190602001808311611f3057829003601f168201915b50505050508152602001600382018054611f6690613254565b80601f0160208091040260200160405190810160405280929190818152602001828054611f9290613254565b8015611fdf5780601f10611fb457610100808354040283529160200191611fdf565b820191906000526020600020905b815481529060010190602001808311611fc257829003601f168201915b50505050508152602001600482018054611ff890613254565b80601f016020809104026020016040519081016040528092919081815260200182805461202490613254565b80156120715780601f1061204657610100808354040283529160200191612071565b820191906000526020600020905b81548152906001019060200180831161205457829003601f168201915b505050505081526020016005820154815260200160068201548152602001600782015481526020016008820154815260200160098201548152602001600a8201548152602001600b820180546120c690613254565b80601f01602080910402602001604051908101604052809291908181526020018280546120f290613254565b801561213f5780601f106121145761010080835404028352916020019161213f565b820191906000526020600020905b81548152906001019060200180831161212257829003601f168201915b50505050508152602001600c8201805461215890613254565b80601f016020809104026020016040519081016040528092919081815260200182805461218490613254565b80156121d15780601f106121a6576101008083540402835291602001916121d1565b820191906000526020600020905b8154815290600101906020018083116121b457829003601f168201915b50505050508152602001600d820154815250509050919050565b60005484106122335760405162461bcd60e51b8152602060048201526014602482015273092dcecc2d8d2c840e8cadcc8cae440d2dcc8caf60631b6044820152606401610513565b60008085815481106122475761224761323e565b90600052602060002090600e0201604051806101c0016040529081600082015481526020016001820160009054906101000a90046001600160a01b03166001600160a01b03166001600160a01b031681526020016002820180546122aa90613254565b80601f01602080910402602001604051908101604052809291908181526020018280546122d690613254565b80156123235780601f106122f857610100808354040283529160200191612323565b820191906000526020600020905b81548152906001019060200180831161230657829003601f168201915b5050505050815260200160038201805461233c90613254565b80601f016020809104026020016040519081016040528092919081815260200182805461236890613254565b80156123b55780601f1061238a576101008083540402835291602001916123b5565b820191906000526020600020905b81548152906001019060200180831161239857829003601f168201915b505050505081526020016004820180546123ce90613254565b80601f01602080910402602001604051908101604052809291908181526020018280546123fa90613254565b80156124475780601f1061241c57610100808354040283529160200191612447565b820191906000526020600020905b81548152906001019060200180831161242a57829003601f168201915b505050505081526020016005820154815260200160068201548152602001600782015481526020016008820154815260200160098201548152602001600a8201548152602001600b8201805461249c90613254565b80601f01602080910402602001604051908101604052809291908181526020018280546124c890613254565b80156125155780601f106124ea57610100808354040283529160200191612515565b820191906000526020600020905b8154815290600101906020018083116124f857829003601f168201915b50505050508152602001600c8201805461252e90613254565b80601f016020809104026020016040519081016040528092919081815260200182805461255a90613254565b80156125a75780601f1061257c576101008083540402835291602001916125a7565b820191906000526020600020905b81548152906001019060200180831161258a57829003601f168201915b50505050508152602001600d8201548152505090508060a00151341461260f5760405162461bcd60e51b815260206004820152601960248201527f496e636f72726563742062696420626f6e6420616d6f756e74000000000000006044820152606401610513565b60005b6001548110156126eb5785600182815481106126305761263061323e565b9060005260206000209060070201600001541480156126865750336001600160a01b0316600182815481106126675761266761323e565b60009182526020909120600160079092020101546001600160a01b0316145b156126e35760405162461bcd60e51b815260206004820152602760248201527f596f75206861766520616c7265616479206170706c69656420746f2074686973604482015266103a32b73232b960c91b6064820152608401610513565b600101612612565b506040805160e08101825286815233602082019081529181018681526060820186905260808201859052600060a0830181905260c08301819052600180548082018255915282517fb10e2d527612073b26eecdfd717e6a320cf44b4afac2b0732d9fcbe2b7fa0cf6600790920291820190815593517fb10e2d527612073b26eecdfd717e6a320cf44b4afac2b0732d9fcbe2b7fa0cf7820180546001600160a01b0319166001600160a01b0390921691909117905590519192917fb10e2d527612073b26eecdfd717e6a320cf44b4afac2b0732d9fcbe2b7fa0cf8909101906127d4908261336d565b50606082015160038201906127e9908261336d565b50608082015160048201906127fe908261336d565b5060a082015160058201805460ff191691151591909117905560c0909101516006909101555050505050565b6000816001148061283b5750816002145b806128465750816003145b806128515750816004145b8061285c5750816005145b806128675750816006145b806128725750816007145b8061287d5750816009145b80612888575081600a145b80612893575081600b145b8061289e575081600c145b806128a9575081600e145b806128b4575081600f145b806128bf5750816010145b806128ca5750816011145b806128d55750816012145b806128e05750816013145b806128eb5750816014145b806128f65750816015145b806129015750816017145b8061290c5750816018145b806129175750816019145b80612922575081601a145b8061292d575081601e145b80612938575081601f145b806129435750816024145b8061294e5750816025145b806129595750816026145b806129645750816027145b8061296f5750816028145b8061297a5750816029145b80612985575081602a145b156129925750600a919050565b816008036129a257506014919050565b81600d14806129b1575081601b145b806129bc575081601c145b806129c75750816020145b806129d25750816021145b806129dd5750816022145b806129e85750816023145b156129f557506005919050565b8160161480612a04575081601d145b15612a1157506001919050565b81602b1480612a20575081602c145b80612a2b575081602d145b80612a36575081602e145b80612a41575081602f145b80612a4c5750816030145b80612a575750816031145b80612a625750816032145b80612a6d5750816033145b80612a785750816034145b80612a835750816035145b15612a905750600a919050565b506000919050565b6000828282805b8351811015612b2957828281518110612aba57612aba61323e565b602001015160f81c60f81b6001600160f81b031916848281518110612ae157612ae161323e565b01602001516001600160f81b03191603612b1c5781612aff816132a4565b92505082518203612b17576001945050505050612b32565b612b21565b600091505b600101612a9f565b50600093505050505b92915050565b6040518060e001604052806000815260200160006001600160a01b03168152602001606081526020016060815260200160608152602001600015158152602001600081525090565b604051806101400160405280600a905b612b98612bae565b815260200190600190039081612b905790505090565b604051806101c001604052806000815260200160006001600160a01b031681526020016060815260200160608152602001606081526020016000815260200160008152602001600081526020016000815260200160008152602001600081526020016060815260200160608152602001600081525090565b600060208284031215612c3857600080fd5b5035919050565b6000815180845260005b81811015612c6557602081850181015186830182015201612c49565b506000602082860101526020601f19601f83011685010191505092915050565b600060208083018184528085518083526040925060408601915060408160051b87010184880160005b83811015612d5157888303603f19018552815180518452878101516001600160a01b0316888501528681015160e088860181905290612cef82870182612c3f565b91505060608083015186830382880152612d098382612c3f565b9250505060808083015186830382880152612d248382612c3f565b60a08581015115159089015260c09485015194909701939093525050509386019390860190600101612cae565b509098975050505050505050565b60006101c0825184526020830151612d8260208601826001600160a01b03169052565b506040830151816040860152612d9a82860182612c3f565b91505060608301518482036060860152612db48282612c3f565b91505060808301518482036080860152612dce8282612c3f565b91505060a083015160a085015260c083015160c085015260e083015160e08501526101008084015181860152506101208084015181860152506101408084015181860152506101608084015185830382870152612e2b8382612c3f565b925050506101808084015185830382870152612e478382612c3f565b6101a095860151969095019590955250919392505050565b6020808252600090610160830183820185845b600a811015612ea157601f19878503018352612e8f848351612d5f565b93509184019190840190600101612e72565b50919695505050505050565b634e487b7160e01b600052604160045260246000fd5b6000806106c0808486031215612ed857600080fd5b83359250602085603f860112612eed57600080fd5b6040516106a0810181811067ffffffffffffffff82111715612f1157612f11612ead565b604052918501918087841115612f2657600080fd5b602087015b84811015612f425780358252908301908301612f2b565b509497909650945050505050565b600082601f830112612f6157600080fd5b813567ffffffffffffffff80821115612f7c57612f7c612ead565b604051601f8301601f19908116603f01168101908282118183101715612fa457612fa4612ead565b81604052838152866020858801011115612fbd57600080fd5b836020870160208301376000602085830101528094505050505092915050565b600060208284031215612fef57600080fd5b813567ffffffffffffffff81111561300657600080fd5b61301284828501612f50565b949350505050565b600060208083016020845280855180835260408601915060408160051b87010192506020870160005b8281101561307157603f1988860301845261305f858351612d5f565b94509285019290850190600101613043565b5092979650505050505050565b60008060008060008060008060008060006101608c8e0312156130a057600080fd5b67ffffffffffffffff808d3511156130b757600080fd5b6130c48e8e358f01612f50565b9b508060208e013511156130d757600080fd5b6130e78e60208f01358f01612f50565b9a508060408e013511156130fa57600080fd5b61310a8e60408f01358f01612f50565b995060608d0135985060808d0135975060a08d0135965060c08d0135955060e08d013594506101008d01359350806101208e0135111561314957600080fd5b61315a8e6101208f01358f01612f50565b9250806101408e0135111561316e57600080fd5b506131808d6101408e01358e01612f50565b90509295989b509295989b9093969950565b6020815260006131a56020830184612d5f565b9392505050565b600080600080608085870312156131c257600080fd5b84359350602085013567ffffffffffffffff808211156131e157600080fd5b6131ed88838901612f50565b9450604087013591508082111561320357600080fd5b61320f88838901612f50565b9350606087013591508082111561322557600080fd5b5061323287828801612f50565b91505092959194509250565b634e487b7160e01b600052603260045260246000fd5b600181811c9082168061326857607f821691505b60208210810361328857634e487b7160e01b600052602260045260246000fd5b50919050565b634e487b7160e01b600052601160045260246000fd5b6000600182016132b6576132b661328e565b5060010190565b81810381811115612b3257612b3261328e565b80820180821115612b3257612b3261328e565b8082028115828204841417612b3257612b3261328e565b60008261331757634e487b7160e01b600052601260045260246000fd5b500490565b601f821115613368576000816000526020600020601f850160051c810160208610156133455750805b601f850160051c820191505b8181101561336457828155600101613351565b5050505b505050565b815167ffffffffffffffff81111561338757613387612ead565b61339b816133958454613254565b8461331c565b602080601f8311600181146133d057600084156133b85750858301515b600019600386901b1c1916600185901b178555613364565b600085815260208120601f198616915b828110156133ff578886015182559484019460019091019084016133e0565b508582101561341d5787850151600019600388901b60f8161c191681555b5050505050600190811b0190555056fea264697066735822122084e1261bc660f47352d2cb6162e3be1ae1becc5f7285c3b27b16e67788bcd57b64736f6c63430008180033",
  "linkReferences": {},
  "deployedLinkReferences": {}
}